{
  "_format": "hh-sol-artifact-1",
  "contractName": "StoryForm",
  "sourceName": "contracts/core/StoryForm.sol",
  "abi": [
    {
      "inputs": [
        {
          "internalType": "contract IStoryFormVerifier",
          "name": "_storyFormVerifier",
          "type": "address"
        },
        {
          "internalType": "contract IVerifier",
          "name": "_semaphoreVerifier",
          "type": "address"
        }
      ],
      "stateMutability": "nonpayable",
      "type": "constructor"
    },
    {
      "anonymous": false,
      "inputs": [
        {
          "indexed": true,
          "internalType": "uint256",
          "name": "groupId",
          "type": "uint256"
        },
        {
          "indexed": false,
          "internalType": "uint8",
          "name": "depth",
          "type": "uint8"
        },
        {
          "indexed": false,
          "internalType": "uint256",
          "name": "zeroValue",
          "type": "uint256"
        }
      ],
      "name": "GroupCreated",
      "type": "event"
    },
    {
      "anonymous": false,
      "inputs": [
        {
          "indexed": true,
          "internalType": "uint256",
          "name": "groupId",
          "type": "uint256"
        },
        {
          "indexed": false,
          "internalType": "uint256",
          "name": "identityCommitment",
          "type": "uint256"
        },
        {
          "indexed": false,
          "internalType": "uint256",
          "name": "root",
          "type": "uint256"
        }
      ],
      "name": "MemberAdded",
      "type": "event"
    },
    {
      "anonymous": false,
      "inputs": [
        {
          "indexed": true,
          "internalType": "uint256",
          "name": "groupId",
          "type": "uint256"
        },
        {
          "indexed": false,
          "internalType": "uint256",
          "name": "identityCommitment",
          "type": "uint256"
        },
        {
          "indexed": false,
          "internalType": "uint256",
          "name": "root",
          "type": "uint256"
        }
      ],
      "name": "MemberRemoved",
      "type": "event"
    },
    {
      "anonymous": false,
      "inputs": [
        {
          "indexed": false,
          "internalType": "uint256",
          "name": "nullifierHash",
          "type": "uint256"
        }
      ],
      "name": "NullifierHashAdded",
      "type": "event"
    },
    {
      "anonymous": false,
      "inputs": [
        {
          "indexed": true,
          "internalType": "uint256",
          "name": "submissionId",
          "type": "uint256"
        },
        {
          "indexed": true,
          "internalType": "uint256",
          "name": "groupId",
          "type": "uint256"
        }
      ],
      "name": "ProofVerified",
      "type": "event"
    },
    {
      "inputs": [
        {
          "internalType": "uint256",
          "name": "groupId",
          "type": "uint256"
        },
        {
          "internalType": "uint256",
          "name": "identityCommitment",
          "type": "uint256"
        }
      ],
      "name": "addMember",
      "outputs": [],
      "stateMutability": "nonpayable",
      "type": "function"
    },
    {
      "inputs": [
        {
          "internalType": "uint256",
          "name": "groupId",
          "type": "uint256"
        },
        {
          "internalType": "uint8",
          "name": "depth",
          "type": "uint8"
        }
      ],
      "name": "createGroup",
      "outputs": [],
      "stateMutability": "nonpayable",
      "type": "function"
    },
    {
      "inputs": [
        {
          "internalType": "uint256",
          "name": "groupId",
          "type": "uint256"
        }
      ],
      "name": "getDepth",
      "outputs": [
        {
          "internalType": "uint8",
          "name": "",
          "type": "uint8"
        }
      ],
      "stateMutability": "view",
      "type": "function"
    },
    {
      "inputs": [
        {
          "internalType": "uint256",
          "name": "groupId",
          "type": "uint256"
        }
      ],
      "name": "getNumberOfLeaves",
      "outputs": [
        {
          "internalType": "uint256",
          "name": "",
          "type": "uint256"
        }
      ],
      "stateMutability": "view",
      "type": "function"
    },
    {
      "inputs": [
        {
          "internalType": "uint256",
          "name": "groupId",
          "type": "uint256"
        }
      ],
      "name": "getRoot",
      "outputs": [
        {
          "internalType": "uint256",
          "name": "",
          "type": "uint256"
        }
      ],
      "stateMutability": "view",
      "type": "function"
    },
    {
      "inputs": [],
      "name": "semaphoreVerifier",
      "outputs": [
        {
          "internalType": "contract IVerifier",
          "name": "",
          "type": "address"
        }
      ],
      "stateMutability": "view",
      "type": "function"
    },
    {
      "inputs": [],
      "name": "storyFormVerifier",
      "outputs": [
        {
          "internalType": "contract IStoryFormVerifier",
          "name": "",
          "type": "address"
        }
      ],
      "stateMutability": "view",
      "type": "function"
    },
    {
      "inputs": [
        {
          "internalType": "uint256",
          "name": "formId",
          "type": "uint256"
        },
        {
          "internalType": "uint256",
          "name": "groupId",
          "type": "uint256"
        },
        {
          "internalType": "uint256",
          "name": "submissionId",
          "type": "uint256"
        },
        {
          "internalType": "uint256[8]",
          "name": "membershipProof",
          "type": "uint256[8]"
        },
        {
          "internalType": "uint256[8]",
          "name": "submissionOwnershipProof",
          "type": "uint256[8]"
        }
      ],
      "name": "veirfyProof",
      "outputs": [],
      "stateMutability": "nonpayable",
      "type": "function"
    }
  ],
  "bytecode": "0x60806040523480156200001157600080fd5b50604051620016e7380380620016e7833981810160405281019062000037919062000184565b81600260006101000a81548173ffffffffffffffffffffffffffffffffffffffff021916908373ffffffffffffffffffffffffffffffffffffffff16021790555080600360006101000a81548173ffffffffffffffffffffffffffffffffffffffff021916908373ffffffffffffffffffffffffffffffffffffffff1602179055505050620001cb565b600080fd5b600073ffffffffffffffffffffffffffffffffffffffff82169050919050565b6000620000f382620000c6565b9050919050565b60006200010782620000e6565b9050919050565b6200011981620000fa565b81146200012557600080fd5b50565b60008151905062000139816200010e565b92915050565b60006200014c82620000e6565b9050919050565b6200015e816200013f565b81146200016a57600080fd5b50565b6000815190506200017e8162000153565b92915050565b600080604083850312156200019e576200019d620000c1565b5b6000620001ae8582860162000128565b9250506020620001c1858286016200016d565b9150509250929050565b61150c80620001db6000396000f3fe608060405234801561001057600080fd5b50600436106100885760003560e01c8063b0db0cd31161005b578063b0db0cd314610127578063b9c78c2b14610143578063ee0afb4614610173578063ffdad3ff1461019157610088565b80630ef53a151461008d5780631783efc3146100ab57806375e618c9146100c75780639b24b3b0146100f7575b600080fd5b6100956101ad565b6040516100a29190610ba1565b60405180910390f35b6100c560048036038101906100c09190610bf7565b6101d3565b005b6100e160048036038101906100dc9190610c37565b6101e1565b6040516100ee9190610c80565b60405180910390f35b610111600480360381019061010c9190610c37565b61020e565b60405161011e9190610caa565b60405180910390f35b610141600480360381019061013c9190610cec565b61022e565b005b61015d60048036038101906101589190610c37565b610278565b60405161016a9190610caa565b60405180910390f35b61017b610298565b6040516101889190610d8a565b60405180910390f35b6101ab60048036038101906101a69190610dd1565b6102be565b005b600360009054906101000a900473ffffffffffffffffffffffffffffffffffffffff1681565b6101dd82826102ce565b5050565b60006001600083815260200190815260200160002060000160009054906101000a900460ff169050919050565b600060016000838152602001908152602001600020600101549050919050565b61023884836103e6565b61024385848361043a565b83837fd4f3db4a3b56fedc0b470e2e34b8d98c7baf6e0c2c02edebb326437ba5c4b93f60405160405180910390a35050505050565b600060016000838152602001908152602001600020600201549050919050565b600260009054906101000a900473ffffffffffffffffffffffffffffffffffffffff1681565b6102ca82826000610692565b5050565b60006102d9836101e1565b60ff16141561031d576040517f08c379a000000000000000000000000000000000000000000000000000000000815260040161031490610e94565b60405180910390fd5b6001600083815260200190815260200160002073__$4c0484323457fe1a856f46a4759b553fe4$__63168703fa9091836040518363ffffffff1660e01b815260040161036a929190610eca565b60006040518083038186803b15801561038257600080fd5b505af4158015610396573d6000803e3d6000fd5b5050505060006103a58361020e565b9050827f03fd27265b7dd1f55558bedc22a58fa3b10afb1be776e614bd5a7ba7b949940683836040516103d9929190610ef3565b60405180910390a2505050565b6000600160008481526020019081526020016000206001015490506104356000801b8260008686600360009054906101000a900473ffffffffffffffffffffffffffffffffffffffff16610800565b505050565b600060405180604001604052808360006008811061045b5761045a610f1c565b5b602002013581526020018360016008811061047957610478610f1c565b5b60200201358152509050600060405180604001604052806040518060400160405280866002600881106104af576104ae610f1c565b5b60200201358152602001866003600881106104cd576104cc610f1c565b5b602002013581525081526020016040518060400160405280866004600881106104f9576104f8610f1c565b5b602002013581526020018660056008811061051757610516610f1c565b5b60200201358152508152509050600060405180604001604052808560066008811061054557610544610f1c565b5b602002013581526020018560076008811061056357610562610f1c565b5b60200201358152509050600060405180604001604052808881526020018781525090506105a78160006002811061059d5761059c610f1c565b5b6020020151610a29565b6105c8816001600281106105be576105bd610f1c565b5b6020020151610a29565b60011515600260009054906101000a900473ffffffffffffffffffffffffffffffffffffffff1673ffffffffffffffffffffffffffffffffffffffff1663f5c9d69e868686866040518563ffffffff1660e01b815260040161062d94939291906110f4565b60206040518083038186803b15801561064557600080fd5b505afa158015610659573d6000803e3d6000fd5b505050506040513d601f19601f8201168201806040525081019061067d9190611173565b15151461068957600080fd5b50505050505050565b7f30644e72e131a029b85045b68181585d2833e84879b9709143e1f593f000000183106106f4576040517f08c379a00000000000000000000000000000000000000000000000000000000081526004016106eb90611212565b60405180910390fd5b60006106ff846101e1565b60ff1614610742576040517f08c379a0000000000000000000000000000000000000000000000000000000008152600401610739906112a4565b60405180910390fd5b6001600084815260200190815260200160002073__$4c0484323457fe1a856f46a4759b553fe4$__63b4bdd117909184846040518463ffffffff1660e01b8152600401610791939291906112d3565b60006040518083038186803b1580156107a957600080fd5b505af41580156107bd573d6000803e3d6000fd5b50505050827fc3082aa494e9088c2c9f0fb62a0b6bd46e6699acb94cfba35be29b95a93f68c883836040516107f392919061130a565b60405180910390a2505050565b60008085815260200190815260200160002060009054906101000a900460ff1615610860576040517f08c379a0000000000000000000000000000000000000000000000000000000008152600401610857906113a5565b60405180910390fd5b600061086b87610ac2565b90508173ffffffffffffffffffffffffffffffffffffffff16635fe8c13b6040518060400160405280866000600881106108a8576108a7610f1c565b5b60200201358152602001866001600881106108c6576108c5610f1c565b5b602002013581525060405180604001604052806040518060400160405280896002600881106108f8576108f7610f1c565b5b602002013581526020018960036008811061091657610915610f1c565b5b6020020135815250815260200160405180604001604052808960046008811061094257610941610f1c565b5b60200201358152602001896005600881106109605761095f610f1c565b5b602002013581525081525060405180604001604052808860066008811061098a57610989610f1c565b5b60200201358152602001886007600881106109a8576109a7610f1c565b5b602002013581525060405180608001604052808c81526020018b81526020018781526020018a8152506040518563ffffffff1660e01b81526004016109f09493929190611449565b60006040518083038186803b158015610a0857600080fd5b505afa158015610a1c573d6000803e3d6000fd5b5050505050505050505050565b610abf81604051602401610a3d9190610caa565b6040516020818303038152906040527ff5b1bba9000000000000000000000000000000000000000000000000000000007bffffffffffffffffffffffffffffffffffffffffffffffffffffffff19166020820180517bffffffffffffffffffffffffffffffffffffffffffffffffffffffff8381831617835250505050610af9565b50565b6000600882604051602001610ad791906114bb565b6040516020818303038152906040528051906020012060001c901c9050919050565b60008151905060006a636f6e736f6c652e6c6f679050602083016000808483855afa5050505050565b600073ffffffffffffffffffffffffffffffffffffffff82169050919050565b6000819050919050565b6000610b67610b62610b5d84610b22565b610b42565b610b22565b9050919050565b6000610b7982610b4c565b9050919050565b6000610b8b82610b6e565b9050919050565b610b9b81610b80565b82525050565b6000602082019050610bb66000830184610b92565b92915050565b600080fd5b6000819050919050565b610bd481610bc1565b8114610bdf57600080fd5b50565b600081359050610bf181610bcb565b92915050565b60008060408385031215610c0e57610c0d610bbc565b5b6000610c1c85828601610be2565b9250506020610c2d85828601610be2565b9150509250929050565b600060208284031215610c4d57610c4c610bbc565b5b6000610c5b84828501610be2565b91505092915050565b600060ff82169050919050565b610c7a81610c64565b82525050565b6000602082019050610c956000830184610c71565b92915050565b610ca481610bc1565b82525050565b6000602082019050610cbf6000830184610c9b565b92915050565b600080fd5b600081905082602060080282011115610ce657610ce5610cc5565b5b92915050565b60008060008060006102608688031215610d0957610d08610bbc565b5b6000610d1788828901610be2565b9550506020610d2888828901610be2565b9450506040610d3988828901610be2565b9350506060610d4a88828901610cca565b925050610160610d5c88828901610cca565b9150509295509295909350565b6000610d7482610b6e565b9050919050565b610d8481610d69565b82525050565b6000602082019050610d9f6000830184610d7b565b92915050565b610dae81610c64565b8114610db957600080fd5b50565b600081359050610dcb81610da5565b92915050565b60008060408385031215610de857610de7610bbc565b5b6000610df685828601610be2565b9250506020610e0785828601610dbc565b9150509250929050565b600082825260208201905092915050565b7f53656d6170686f726547726f7570733a2067726f757020646f6573206e6f742060008201527f6578697374000000000000000000000000000000000000000000000000000000602082015250565b6000610e7e602583610e11565b9150610e8982610e22565b604082019050919050565b60006020820190508181036000830152610ead81610e71565b9050919050565b8082525050565b610ec481610bc1565b82525050565b6000604082019050610edf6000830185610eb4565b610eec6020830184610ebb565b9392505050565b6000604082019050610f086000830185610c9b565b610f156020830184610c9b565b9392505050565b7f4e487b7100000000000000000000000000000000000000000000000000000000600052603260045260246000fd5b600060029050919050565b600081905092915050565b6000819050919050565b610f7481610bc1565b82525050565b6000610f868383610f6b565b60208301905092915050565b6000602082019050919050565b610fa881610f4b565b610fb28184610f56565b9250610fbd82610f61565b8060005b83811015610fee578151610fd58782610f7a565b9650610fe083610f92565b925050600181019050610fc1565b505050505050565b600060029050919050565b600081905092915050565b6000819050919050565b600081905092915050565b61102a81610f4b565b6110348184611016565b925061103f82610f61565b8060005b838110156110705781516110578782610f7a565b965061106283610f92565b925050600181019050611043565b505050505050565b60006110848383611021565b60408301905092915050565b6000602082019050919050565b6110a681610ff6565b6110b08184611001565b92506110bb8261100c565b8060005b838110156110ec5781516110d38782611078565b96506110de83611090565b9250506001810190506110bf565b505050505050565b60006101408201905061110a6000830187610f9f565b611117604083018661109d565b61112460c0830185610f9f565b611132610100830184610f9f565b95945050505050565b60008115159050919050565b6111508161113b565b811461115b57600080fd5b50565b60008151905061116d81611147565b92915050565b60006020828403121561118957611188610bbc565b5b60006111978482850161115e565b91505092915050565b7f53656d6170686f726547726f7570733a2067726f7570206964206d757374206260008201527f65203c20534e41524b5f5343414c41525f4649454c4400000000000000000000602082015250565b60006111fc603683610e11565b9150611207826111a0565b604082019050919050565b6000602082019050818103600083015261122b816111ef565b9050919050565b7f53656d6170686f726547726f7570733a2067726f757020616c7265616479206560008201527f7869737473000000000000000000000000000000000000000000000000000000602082015250565b600061128e602583610e11565b915061129982611232565b604082019050919050565b600060208201905081810360008301526112bd81611281565b9050919050565b6112cd81610c64565b82525050565b60006060820190506112e86000830186610eb4565b6112f560208301856112c4565b6113026040830184610ebb565b949350505050565b600060408201905061131f6000830185610c71565b61132c6020830184610c9b565b9392505050565b7f53656d6170686f7265436f72653a20796f752063616e6e6f742075736520746860008201527f652073616d65206e756c6c696669657220747769636500000000000000000000602082015250565b600061138f603683610e11565b915061139a82611333565b604082019050919050565b600060208201905081810360008301526113be81611382565b9050919050565b600060049050919050565b600081905092915050565b6000819050919050565b6000602082019050919050565b6113fb816113c5565b61140581846113d0565b9250611410826113db565b8060005b838110156114415781516114288782610f7a565b9650611433836113e5565b925050600181019050611414565b505050505050565b60006101808201905061145f6000830187610f9f565b61146c604083018661109d565b61147960c0830185610f9f565b6114876101008301846113f2565b95945050505050565b6000819050919050565b6000819050919050565b6114b56114b082611490565b61149a565b82525050565b60006114c782846114a4565b6020820191508190509291505056fea264697066735822122047a1b6bebd92930274567c0ede65941999bd0f0f799961e5b7bdb33e6039c1a964736f6c63430008090033",
  "linkReferences": {
    "@zk-kit/incremental-merkle-tree.sol/contracts/IncrementalBinaryTree.sol": {
      "IncrementalBinaryTree": [
        {
          "length": 20,
          "start": 1293
        },
        {
          "length": 20,
          "start": 2354
        }
      ]
    }
  },
  "deployedLinkReferences": {
    "@zk-kit/incremental-merkle-tree.sol/contracts/IncrementalBinaryTree.sol": {
      "IncrementalBinaryTree": [
        {
          "length": 20,
          "start": 818
        },
        {
          "length": 20,
          "start": 1879
        }
      ]
    }
  }
}