{
  "_format": "hh-sol-artifact-1",
  "contractName": "StoryForm",
  "sourceName": "contracts/core/StoryForm.sol",
  "abi": [
    {
      "inputs": [
        {
          "internalType": "contract IStoryFormVerifier",
          "name": "_storyFormVerifier",
          "type": "address"
        },
        {
          "internalType": "contract IVerifier",
          "name": "_semaphoreVerifier",
          "type": "address"
        }
      ],
      "stateMutability": "nonpayable",
      "type": "constructor"
    },
    {
      "anonymous": false,
      "inputs": [
        {
          "indexed": true,
          "internalType": "uint256",
          "name": "groupId",
          "type": "uint256"
        },
        {
          "indexed": false,
          "internalType": "uint8",
          "name": "depth",
          "type": "uint8"
        },
        {
          "indexed": false,
          "internalType": "uint256",
          "name": "zeroValue",
          "type": "uint256"
        }
      ],
      "name": "GroupCreated",
      "type": "event"
    },
    {
      "anonymous": false,
      "inputs": [
        {
          "indexed": true,
          "internalType": "uint256",
          "name": "groupId",
          "type": "uint256"
        },
        {
          "indexed": false,
          "internalType": "uint256",
          "name": "identityCommitment",
          "type": "uint256"
        },
        {
          "indexed": false,
          "internalType": "uint256",
          "name": "root",
          "type": "uint256"
        }
      ],
      "name": "MemberAdded",
      "type": "event"
    },
    {
      "anonymous": false,
      "inputs": [
        {
          "indexed": true,
          "internalType": "uint256",
          "name": "groupId",
          "type": "uint256"
        },
        {
          "indexed": false,
          "internalType": "uint256",
          "name": "identityCommitment",
          "type": "uint256"
        },
        {
          "indexed": false,
          "internalType": "uint256",
          "name": "root",
          "type": "uint256"
        }
      ],
      "name": "MemberRemoved",
      "type": "event"
    },
    {
      "anonymous": false,
      "inputs": [
        {
          "indexed": false,
          "internalType": "uint256",
          "name": "nullifierHash",
          "type": "uint256"
        }
      ],
      "name": "NullifierHashAdded",
      "type": "event"
    },
    {
      "anonymous": false,
      "inputs": [
        {
          "indexed": true,
          "internalType": "uint256",
          "name": "submissionId",
          "type": "uint256"
        },
        {
          "indexed": true,
          "internalType": "uint256",
          "name": "groupId",
          "type": "uint256"
        }
      ],
      "name": "ProofVerified",
      "type": "event"
    },
    {
      "inputs": [
        {
          "internalType": "uint256",
          "name": "groupId",
          "type": "uint256"
        }
      ],
      "name": "getDepth",
      "outputs": [
        {
          "internalType": "uint8",
          "name": "",
          "type": "uint8"
        }
      ],
      "stateMutability": "view",
      "type": "function"
    },
    {
      "inputs": [
        {
          "internalType": "uint256",
          "name": "groupId",
          "type": "uint256"
        }
      ],
      "name": "getNumberOfLeaves",
      "outputs": [
        {
          "internalType": "uint256",
          "name": "",
          "type": "uint256"
        }
      ],
      "stateMutability": "view",
      "type": "function"
    },
    {
      "inputs": [
        {
          "internalType": "uint256",
          "name": "groupId",
          "type": "uint256"
        }
      ],
      "name": "getRoot",
      "outputs": [
        {
          "internalType": "uint256",
          "name": "",
          "type": "uint256"
        }
      ],
      "stateMutability": "view",
      "type": "function"
    },
    {
      "inputs": [],
      "name": "semaphoreVerifier",
      "outputs": [
        {
          "internalType": "contract IVerifier",
          "name": "",
          "type": "address"
        }
      ],
      "stateMutability": "view",
      "type": "function"
    },
    {
      "inputs": [],
      "name": "storyFormVerifier",
      "outputs": [
        {
          "internalType": "contract IStoryFormVerifier",
          "name": "",
          "type": "address"
        }
      ],
      "stateMutability": "view",
      "type": "function"
    },
    {
      "inputs": [
        {
          "internalType": "uint256",
          "name": "formId",
          "type": "uint256"
        },
        {
          "internalType": "uint256",
          "name": "groupId",
          "type": "uint256"
        },
        {
          "internalType": "uint256",
          "name": "submissionId",
          "type": "uint256"
        },
        {
          "internalType": "uint256[8]",
          "name": "membershipProof",
          "type": "uint256[8]"
        },
        {
          "internalType": "uint256[8]",
          "name": "submissionOwnershipProof",
          "type": "uint256[8]"
        }
      ],
      "name": "veirfyProof",
      "outputs": [],
      "stateMutability": "nonpayable",
      "type": "function"
    }
  ],
  "bytecode": "0x60806040523480156200001157600080fd5b5060405162000c3a38038062000c3a833981810160405281019062000037919062000184565b81600260006101000a81548173ffffffffffffffffffffffffffffffffffffffff021916908373ffffffffffffffffffffffffffffffffffffffff16021790555080600360006101000a81548173ffffffffffffffffffffffffffffffffffffffff021916908373ffffffffffffffffffffffffffffffffffffffff1602179055505050620001cb565b600080fd5b600073ffffffffffffffffffffffffffffffffffffffff82169050919050565b6000620000f382620000c6565b9050919050565b60006200010782620000e6565b9050919050565b6200011981620000fa565b81146200012557600080fd5b50565b60008151905062000139816200010e565b92915050565b60006200014c82620000e6565b9050919050565b6200015e816200013f565b81146200016a57600080fd5b50565b6000815190506200017e8162000153565b92915050565b600080604083850312156200019e576200019d620000c1565b5b6000620001ae8582860162000128565b9250506020620001c1858286016200016d565b9150509250929050565b610a5f80620001db6000396000f3fe608060405234801561001057600080fd5b50600436106100625760003560e01c80630ef53a151461006757806375e618c9146100855780639b24b3b0146100b5578063b0db0cd3146100e5578063b9c78c2b14610101578063ee0afb4614610131575b600080fd5b61006f61014f565b60405161007c91906105e1565b60405180910390f35b61009f600480360381019061009a9190610637565b610175565b6040516100ac9190610680565b60405180910390f35b6100cf60048036038101906100ca9190610637565b6101a2565b6040516100dc91906106aa565b60405180910390f35b6100ff60048036038101906100fa91906106ec565b6101c2565b005b61011b60048036038101906101169190610637565b610202565b60405161012891906106aa565b60405180910390f35b610139610222565b604051610146919061078a565b60405180910390f35b600360009054906101000a900473ffffffffffffffffffffffffffffffffffffffff1681565b60006001600083815260200190815260200160002060000160009054906101000a900460ff169050919050565b600060016000838152602001908152602001600020600101549050919050565b6101cd858483610248565b83837fd4f3db4a3b56fedc0b470e2e34b8d98c7baf6e0c2c02edebb326437ba5c4b93f60405160405180910390a35050505050565b600060016000838152602001908152602001600020600201549050919050565b600260009054906101000a900473ffffffffffffffffffffffffffffffffffffffff1681565b6000604051806040016040528083600060088110610269576102686107a5565b5b6020020135815260200183600160088110610287576102866107a5565b5b60200201358152509050600060405180604001604052806040518060400160405280866002600881106102bd576102bc6107a5565b5b60200201358152602001866003600881106102db576102da6107a5565b5b60200201358152508152602001604051806040016040528086600460088110610307576103066107a5565b5b6020020135815260200186600560088110610325576103246107a5565b5b602002013581525081525090506000604051806040016040528085600660088110610353576103526107a5565b5b6020020135815260200185600760088110610371576103706107a5565b5b60200201358152509050600060405180604001604052808881526020018781525090506103b5816000600281106103ab576103aa6107a5565b5b60200201516104a0565b6103d6816001600281106103cc576103cb6107a5565b5b60200201516104a0565b60011515600260009054906101000a900473ffffffffffffffffffffffffffffffffffffffff1673ffffffffffffffffffffffffffffffffffffffff1663f5c9d69e868686866040518563ffffffff1660e01b815260040161043b949392919061097d565b60206040518083038186803b15801561045357600080fd5b505afa158015610467573d6000803e3d6000fd5b505050506040513d601f19601f8201168201806040525081019061048b91906109fc565b15151461049757600080fd5b50505050505050565b610536816040516024016104b491906106aa565b6040516020818303038152906040527ff5b1bba9000000000000000000000000000000000000000000000000000000007bffffffffffffffffffffffffffffffffffffffffffffffffffffffff19166020820180517bffffffffffffffffffffffffffffffffffffffffffffffffffffffff8381831617835250505050610539565b50565b60008151905060006a636f6e736f6c652e6c6f679050602083016000808483855afa5050505050565b600073ffffffffffffffffffffffffffffffffffffffff82169050919050565b6000819050919050565b60006105a76105a261059d84610562565b610582565b610562565b9050919050565b60006105b98261058c565b9050919050565b60006105cb826105ae565b9050919050565b6105db816105c0565b82525050565b60006020820190506105f660008301846105d2565b92915050565b600080fd5b6000819050919050565b61061481610601565b811461061f57600080fd5b50565b6000813590506106318161060b565b92915050565b60006020828403121561064d5761064c6105fc565b5b600061065b84828501610622565b91505092915050565b600060ff82169050919050565b61067a81610664565b82525050565b60006020820190506106956000830184610671565b92915050565b6106a481610601565b82525050565b60006020820190506106bf600083018461069b565b92915050565b600080fd5b6000819050826020600802820111156106e6576106e56106c5565b5b92915050565b60008060008060006102608688031215610709576107086105fc565b5b600061071788828901610622565b955050602061072888828901610622565b945050604061073988828901610622565b935050606061074a888289016106ca565b92505061016061075c888289016106ca565b9150509295509295909350565b6000610774826105ae565b9050919050565b61078481610769565b82525050565b600060208201905061079f600083018461077b565b92915050565b7f4e487b7100000000000000000000000000000000000000000000000000000000600052603260045260246000fd5b600060029050919050565b600081905092915050565b6000819050919050565b6107fd81610601565b82525050565b600061080f83836107f4565b60208301905092915050565b6000602082019050919050565b610831816107d4565b61083b81846107df565b9250610846826107ea565b8060005b8381101561087757815161085e8782610803565b96506108698361081b565b92505060018101905061084a565b505050505050565b600060029050919050565b600081905092915050565b6000819050919050565b600081905092915050565b6108b3816107d4565b6108bd818461089f565b92506108c8826107ea565b8060005b838110156108f95781516108e08782610803565b96506108eb8361081b565b9250506001810190506108cc565b505050505050565b600061090d83836108aa565b60408301905092915050565b6000602082019050919050565b61092f8161087f565b610939818461088a565b925061094482610895565b8060005b8381101561097557815161095c8782610901565b965061096783610919565b925050600181019050610948565b505050505050565b6000610140820190506109936000830187610828565b6109a06040830186610926565b6109ad60c0830185610828565b6109bb610100830184610828565b95945050505050565b60008115159050919050565b6109d9816109c4565b81146109e457600080fd5b50565b6000815190506109f6816109d0565b92915050565b600060208284031215610a1257610a116105fc565b5b6000610a20848285016109e7565b9150509291505056fea2646970667358221220442aed70b0ae0d0efdf34c6470df7686111b2994219b6f1278c8d02597f0c53364736f6c63430008090033",
  "linkReferences": {},
  "deployedLinkReferences": {}
}